{
  "contractName": "Voting",
  "abi": [
    {
      "inputs": [
        {
          "internalType": "uint256",
          "name": "",
          "type": "uint256"
        }
      ],
      "name": "proposals",
      "outputs": [
        {
          "internalType": "string",
          "name": "name",
          "type": "string"
        },
        {
          "internalType": "uint256",
          "name": "voteCount",
          "type": "uint256"
        }
      ],
      "stateMutability": "view",
      "type": "function"
    },
    {
      "inputs": [
        {
          "internalType": "address",
          "name": "",
          "type": "address"
        }
      ],
      "name": "voters",
      "outputs": [
        {
          "internalType": "bool",
          "name": "",
          "type": "bool"
        }
      ],
      "stateMutability": "view",
      "type": "function"
    },
    {
      "inputs": [
        {
          "internalType": "string",
          "name": "proposalName",
          "type": "string"
        }
      ],
      "name": "createProposal",
      "outputs": [],
      "stateMutability": "nonpayable",
      "type": "function"
    },
    {
      "inputs": [
        {
          "internalType": "uint256",
          "name": "proposalIndex",
          "type": "uint256"
        }
      ],
      "name": "vote",
      "outputs": [],
      "stateMutability": "nonpayable",
      "type": "function"
    },
    {
      "inputs": [],
      "name": "getProposals",
      "outputs": [
        {
          "components": [
            {
              "internalType": "string",
              "name": "name",
              "type": "string"
            },
            {
              "internalType": "uint256",
              "name": "voteCount",
              "type": "uint256"
            }
          ],
          "internalType": "struct Voting.Proposal[]",
          "name": "",
          "type": "tuple[]"
        }
      ],
      "stateMutability": "view",
      "type": "function"
    }
  ],
  "bytecode": "0x608060405234801561000f575f80fd5b50610d238061001d5f395ff3fe608060405234801561000f575f80fd5b5060043610610055575f3560e01c80630121b93f14610059578063013cf08b1461007557806349c2a1a6146100a657806362564c48146100c2578063a3ec138d146100e0575b5f80fd5b610073600480360381019061006e9190610492565b610110565b005b61008f600480360381019061008a9190610492565b610228565b60405161009d929190610556565b60405180910390f35b6100c060048036038101906100bb91906106b0565b6102dd565b005b6100ca61033d565b6040516100d79190610843565b60405180910390f35b6100fa60048036038101906100f591906108bd565b610432565b6040516101079190610902565b60405180910390f35b5f803373ffffffffffffffffffffffffffffffffffffffff1673ffffffffffffffffffffffffffffffffffffffff1681526020019081526020015f205f9054906101000a900460ff1615610199576040517f08c379a000000000000000000000000000000000000000000000000000000000815260040161019090610965565b60405180910390fd5b60015f803373ffffffffffffffffffffffffffffffffffffffff1673ffffffffffffffffffffffffffffffffffffffff1681526020019081526020015f205f6101000a81548160ff0219169083151502179055506001818154811061020157610200610983565b5b905f5260205f2090600202016001015f815480929190610220906109dd565b919050555050565b60018181548110610237575f80fd5b905f5260205f2090600202015f91509050805f01805461025690610a51565b80601f016020809104026020016040519081016040528092919081815260200182805461028290610a51565b80156102cd5780601f106102a4576101008083540402835291602001916102cd565b820191905f5260205f20905b8154815290600101906020018083116102b057829003601f168201915b5050505050908060010154905082565b600160405180604001604052808381526020015f815250908060018154018082558091505060019003905f5260205f2090600202015f909190919091505f820151815f01908161032d9190610c1e565b5060208201518160010155505050565b60606001805480602002602001604051908101604052809291908181526020015f905b82821015610429578382905f5260205f2090600202016040518060400160405290815f8201805461039090610a51565b80601f01602080910402602001604051908101604052809291908181526020018280546103bc90610a51565b80156104075780601f106103de57610100808354040283529160200191610407565b820191905f5260205f20905b8154815290600101906020018083116103ea57829003601f168201915b5050505050815260200160018201548152505081526020019060010190610360565b50505050905090565b5f602052805f5260405f205f915054906101000a900460ff1681565b5f604051905090565b5f80fd5b5f80fd5b5f819050919050565b6104718161045f565b811461047b575f80fd5b50565b5f8135905061048c81610468565b92915050565b5f602082840312156104a7576104a6610457565b5b5f6104b48482850161047e565b91505092915050565b5f81519050919050565b5f82825260208201905092915050565b5f5b838110156104f45780820151818401526020810190506104d9565b5f8484015250505050565b5f601f19601f8301169050919050565b5f610519826104bd565b61052381856104c7565b93506105338185602086016104d7565b61053c816104ff565b840191505092915050565b6105508161045f565b82525050565b5f6040820190508181035f83015261056e818561050f565b905061057d6020830184610547565b9392505050565b5f80fd5b5f80fd5b7f4e487b71000000000000000000000000000000000000000000000000000000005f52604160045260245ffd5b6105c2826104ff565b810181811067ffffffffffffffff821117156105e1576105e061058c565b5b80604052505050565b5f6105f361044e565b90506105ff82826105b9565b919050565b5f67ffffffffffffffff82111561061e5761061d61058c565b5b610627826104ff565b9050602081019050919050565b828183375f83830152505050565b5f61065461064f84610604565b6105ea565b9050828152602081018484840111156106705761066f610588565b5b61067b848285610634565b509392505050565b5f82601f83011261069757610696610584565b5b81356106a7848260208601610642565b91505092915050565b5f602082840312156106c5576106c4610457565b5b5f82013567ffffffffffffffff8111156106e2576106e161045b565b5b6106ee84828501610683565b91505092915050565b5f81519050919050565b5f82825260208201905092915050565b5f819050602082019050919050565b5f82825260208201905092915050565b5f61073a826104bd565b6107448185610720565b93506107548185602086016104d7565b61075d816104ff565b840191505092915050565b6107718161045f565b82525050565b5f604083015f8301518482035f8601526107918282610730565b91505060208301516107a66020860182610768565b508091505092915050565b5f6107bc8383610777565b905092915050565b5f602082019050919050565b5f6107da826106f7565b6107e48185610701565b9350836020820285016107f685610711565b805f5b85811015610831578484038952815161081285826107b1565b945061081d836107c4565b925060208a019950506001810190506107f9565b50829750879550505050505092915050565b5f6020820190508181035f83015261085b81846107d0565b905092915050565b5f73ffffffffffffffffffffffffffffffffffffffff82169050919050565b5f61088c82610863565b9050919050565b61089c81610882565b81146108a6575f80fd5b50565b5f813590506108b781610893565b92915050565b5f602082840312156108d2576108d1610457565b5b5f6108df848285016108a9565b91505092915050565b5f8115159050919050565b6108fc816108e8565b82525050565b5f6020820190506109155f8301846108f3565b92915050565b7f416c726561647920766f7465642e0000000000000000000000000000000000005f82015250565b5f61094f600e836104c7565b915061095a8261091b565b602082019050919050565b5f6020820190508181035f83015261097c81610943565b9050919050565b7f4e487b71000000000000000000000000000000000000000000000000000000005f52603260045260245ffd5b7f4e487b71000000000000000000000000000000000000000000000000000000005f52601160045260245ffd5b5f6109e78261045f565b91507fffffffffffffffffffffffffffffffffffffffffffffffffffffffffffffffff8203610a1957610a186109b0565b5b600182019050919050565b7f4e487b71000000000000000000000000000000000000000000000000000000005f52602260045260245ffd5b5f6002820490506001821680610a6857607f821691505b602082108103610a7b57610a7a610a24565b5b50919050565b5f819050815f5260205f209050919050565b5f6020601f8301049050919050565b5f82821b905092915050565b5f60088302610add7fffffffffffffffffffffffffffffffffffffffffffffffffffffffffffffffff82610aa2565b610ae78683610aa2565b95508019841693508086168417925050509392505050565b5f819050919050565b5f610b22610b1d610b188461045f565b610aff565b61045f565b9050919050565b5f819050919050565b610b3b83610b08565b610b4f610b4782610b29565b848454610aae565b825550505050565b5f90565b610b63610b57565b610b6e818484610b32565b505050565b5b81811015610b9157610b865f82610b5b565b600181019050610b74565b5050565b601f821115610bd657610ba781610a81565b610bb084610a93565b81016020851015610bbf578190505b610bd3610bcb85610a93565b830182610b73565b50505b505050565b5f82821c905092915050565b5f610bf65f1984600802610bdb565b1980831691505092915050565b5f610c0e8383610be7565b9150826002028217905092915050565b610c27826104bd565b67ffffffffffffffff811115610c4057610c3f61058c565b5b610c4a8254610a51565b610c55828285610b95565b5f60209050601f831160018114610c86575f8415610c74578287015190505b610c7e8582610c03565b865550610ce5565b601f198416610c9486610a81565b5f5b82811015610cbb57848901518255600182019150602085019450602081019050610c96565b86831015610cd85784890151610cd4601f891682610be7565b8355505b6001600288020188555050505b50505050505056fea26469706673582212208ae29880c362196bf93c51a75f5856ae273fcdb3bbcaf023651687879b7d4a0764736f6c63430008150033",
  "immutableReferences": {},
  "source": "// SPDX-License-Identifier: MIT\npragma solidity ^0.8.0;\n\ncontract Voting {\n    struct Proposal {\n        string name;\n        uint voteCount;\n    }\n\n    mapping(address => bool) public voters;\n    Proposal[] public proposals;\n\n    function createProposal(string memory proposalName) public {\n        proposals.push(Proposal({\n            name: proposalName,\n            voteCount: 0\n        }));\n    }\n\n    function vote(uint proposalIndex) public {\n        require(!voters[msg.sender], \"Already voted.\");\n        voters[msg.sender] = true;\n        proposals[proposalIndex].voteCount++;\n    }\n\n    function getProposals() public view returns (Proposal[] memory) {\n        return proposals;\n    }\n}\n",
  "sourcePath": "/home/pehnawa/dummy/dvp/contracts/Voting.sol",
  "compiler": {
    "name": "solc",
    "version": "0.8.21+commit.d9974bed.Emscripten.clang"
  },
  "schemaVersion": "3.4.16",
  "updatedAt": "2024-08-28T12:34:46.234Z",
  "devdoc": {
    "kind": "dev",
    "methods": {},
    "version": 1
  },
  "userdoc": {
    "kind": "user",
    "methods": {},
    "version": 1
  }
}